:020000040800F2
:100000001808002089010008B51E00081D1C000802
:10001000B11E000861020008492700080000000026
:10002000000000000000000000000000E9240008BB
:100030006502000800000000E52400082D260008E5
:10004000A3010008A3010008A3010008A301000800
:10005000A3010008A3010008A3010008A3010008F0
:10006000A3010008A3010008A3010008A3010008E0
:10007000A3010008A3010008A3010008A3010008D0
:10008000A3010008A3010008A3010008A3010008C0
:10009000A3010008A3010008A3010008A3010008B0
:1000A000A3010008A3010008A3010008A3010008A0
:1000B000A3010008A3010008A3010008A301000890
:1000C000A3010008A3010008A3010008A301000880
:1000D000A30100083D270008A3010008A3010008B0
:1000E000A3010008A3010008A301000800F002F822
:1000F00000F03AF80AA090E8000C82448344AAF188
:100100000107DA4501D100F02FF8AFF2090EBAE885
:100110000F0013F0010F18BFFB1A43F0010318473B
:10012000EC4900000C4A0000103A24BF78C878C19E
:10013000FAD8520724BF30C830C144BF04680C60ED
:10014000704700000023002400250026103A28BF35
:1001500078C1FBD8520728BF30C148BF0B60704739
:100160001FB51FBD10B510BD00F044F81146FFF7D4
:10017000F7FF02F045FE00F062F803B4FFF7F2FF6C
:1001800003BC00F065F800000948804709480047B3
:10019000FEE7FEE7FEE7FEE7FEE7FEE7FEE7FEE737
:1001A000FEE7FEE704480549054A064B7047000094
:1001B00031260008ED000008180200201808002071
:1001C000180400201804002070477047704710B5CD
:1001D00000F008F8006810BD10B5044600F002F801
:1001E000046010BD00487047480000200048704778
:1001F000480000207546FFF7F9FFAE460500694646
:10020000534620F00700854618B020B5FFF7CAFF17
:10021000BDE820404FF000064FF000074FF0000807
:100220004FF0000BAC46ACE8C009ACE8C009ACE844
:10023000C009ACE8C00921F007018D46704710B530
:100240000446AFF300802046BDE81040FFF795BF9D
:1002500001491820ABBEFEE72600020070470000EF
:10026000FEE7000070470000EFF3108072B600BF99
:10027000FEE70000014690F82100022816D1086828
:10028000D1E90FC3026822F00E020260026822F078
:1002900001020260012000FA03F2CCF8042081F888
:1002A00021000020002281F820207047042088636C
:1002B0000120002281F820207047000080B590F8CE
:1002C0002110022923D10268116821F00E0111606A
:1002D0002F211368C4F202018A4240F20401C4F2E1
:1002E000020123F00103136016DD3023C4F2020380
:1002F0009A421DD04423C4F202039A421BD05823D1
:10030000C4F202039A421BD14FF4803320E004214F
:1003100081630121084680BD0823C4F202039A428A
:100320000CD01C23C4F202039A4209D110230FE01F
:100330004FF480730CE04FF4805309E0012307E091
:1003400001F1680C4FF08073624508BF4FF48013D1
:100350000B60012180F82110426B002180F82010F1
:100360000AB190470021084680BD0000B0B50446A0
:1003700000F028F9054640F20000C2F200000078C3
:10038000611C18BF044400BF00F01CF9401BA042D0
:10039000FAD3B0BD2DE9F04F82B00E68002E00F008
:1003A000028140F20C4C41F200424FF6FF7BC4F256
:1003B000010CC4F20102042300240127C1F2100B36
:1003C0004FF0000A4FF000094FF00F0E904208BFA7
:1003D0000323009307FA0AF816EA080F36D043E021
:1003E0000123BB402B4342F82B30D1F804B040F23C
:1003F0000047C4F201075FEACB22BA6854BF22EA81
:10040000080242EA0802BA60DCF800205FEA8B23A7
:1004100054BF22EA080242EA0802CCF800207A68B7
:100420005FEA8B3354BF22EA080242EA08027A608C
:100430005FEACB333A684FF6FF7B54BF22EA0802EB
:1004400042EA08023A600127C1F2100B0E680AF175
:10045000010A36FA0AF204F1040400F0A48007FA53
:100460000AF816EA080FF1D04A685A4510DC122A39
:1004700050D8DFE802F0330A41454F4F4F4F4F4FFE
:100480004F4F4F4F4F4F4F484C00D1F80C9041E029
:100490004FF6FF73C1F221039A420FDC0023C1F231
:1004A00011039A421AD00023C1F212039A4215D0C6
:1004B0000023C1F221039A4210D02BE00023C1F2A5
:1004C00022039A420AD00023C1F231039A4205D096
:1004D0000023C1F232039A421CD100BF8A6842B1A4
:1004E000012A14BFC0F81480C0F810804FF008092A
:1004F00010E04FF004090DE0CA6802F1080909E0B4
:100500004FF0000906E0CA6802F1040902E0CA6877
:1005100002F10C0922460346BAF1080F24BF203A23
:1005200004331D680EFA02F6B54309FA02F22A43B3
:100530001A60CA79D2067FF589AF41F21802C4F277
:100540000202134612684FEA9A0B42F001021A6047
:100550001A6804F00C0702F001020192019A40F2BD
:100560000042C4F20102A2F57E7252F82B3040F62E
:1005700000060EFA07F5C4F20106B04223EA0505AB
:100580000FD040F60043C4F2010398423FF428AF75
:1005900041F20003C4F201039842009B08BF02230A
:1005A0001FE700231DE702B0BDE8F08F8068084018
:1005B00018BF012070470000002A08BF090401612C
:1005C0007047000040F21020C2F20000006870473F
:1005D00040F2000040F21021C2F20000C2F200011D
:1005E00000780A68104408607047000080B542F245
:1005F0000000C4F20200016841F010010160032014
:1006000000F07AF80F2000F005F800F027F800203D
:1006100080BD000070B540F20006C2F2000640F254
:1006200028013278C2F200014FF47A730968B3FBF3
:10063000F2F20446B1FBF2F1084600F01DFB0F2C6C
:100640004FF0010508D838B94FF0FF30214600229D
:10065000002500F025F87460284670BD82B041F294
:100660001800C4F202000168022241F00101016099
:10067000016801F0010101910199416841F0805147
:100680004160406800F08050009000980420C4F25F
:100690000100016862F31A61016002B07047000056
:1006A00010B54EF60C5CCEF2000CDCF80030C3F353
:1006B000022E8EF00704042C28BF0424BEF103038D
:1006C0004FF0FF3E0EFA04F438BF0023A1439940D7
:1006D0000EFA03F39A4300F00F03043B1143634403
:1006E00009010C3300F16042B0F1FF3FC8BF02F5D1
:1006F0006443197010BD00004EF60C51CEF200019B
:100700000A684FF6FF031A4060F30A2242F0806045
:1007100040F0FD70086070472DE9F04381B000287B
:1007200000F0AB8042F20008C4F202080446D8F898
:1007300000000D4600F0070088420DD2D8F80000F6
:1007400020F007002843C8F80000D8F8000000F0A7
:100750000700A84240F09180206841F20409810717
:10076000C4F2020917D5410705D5D9F8001041F4A4
:10077000E061C9F80010010705D5D9F8001041F46F
:100780006051C9F80010D9F80010A26821F0F001FA
:100790001143C9F80010C0072DD06068012804D1AA
:1007A00059F8041C890368D508E059F8041C02288C
:1007B00002D1890161D501E089075ED5D9F8001021
:1007C00021F003010843C9F80000FFF7FBFE0646CD
:1007D00041F28837D9F80000616800F00C00B0EBF6
:1007E000810F08D0FFF7EEFE801BB842F2D903203C
:1007F00001B0BDE8F083D8F8000000F00700A8427F
:100800000CD9D8F8000020F007002843C8F80000F1
:10081000D8F8000000F00700A8422ED12068410758
:1008200007D5D9F80010E26821F4E0611143C9F856
:100830000010000708D5D9F80000216920F46050A5
:1008400040EAC100C9F80000D9F8002002F00C000D
:10085000082841F20020C0F27A001ED144F6FA23A3
:10086000C2F38341C0F60003595CD20309D440F6B9
:100870000010C0F23D0048430FE0012001B0BDE888
:10088000F083D9F8002044F20853C2F34042C0F686
:1008900000039A5C4843B0FBF2F0D9F8001044F230
:1008A000F842C1F30311C0F60002515C40F2280285
:1008B00020FA01F140F20400C2F200000068C2F226
:1008C00000021160FFF7A6FE002001B0BDE8F08332
:1008D0002DE9F04182B0002800F0A58004460078A0
:1008E00041F20006C007C4F202064CD0706800F066
:1008F0000C00042817D0706800F00C00082802D102
:100900007068C0030FD4606898B1B0F5803F06D01E
:100910003168B0F5A02F22D141F4802030603068DA
:1009200040F4803021E0306880032CD5606850BBF3
:1009300079E0306820F480303060306820F4802026
:100940003060FFF73FFE0546306880031BD5FFF798
:1009500039FE401B64284FF00300F5D988E121F4EB
:1009600080303060306820F480203060FFF72AFE4D
:10097000054600BF3068800305D4FFF723FE401B07
:100980006428F7D940E1207880072FD5706810F0EF
:100990000C0F07D0706800F00C00082809D17068AF
:1009A000C00306D43068800719D5206901283AD1E0
:1009B00015E02069002840F20000C4F2422000F057
:1009C000E38001210160FFF7FDFD054630688007E7
:1009D00005D4FFF7F7FD401B0228F7D914E1306872
:1009E000616920F0F80040EAC1003060207800071B
:1009F0001DD4207840072ED4E569002D00F0378102
:100A0000706800F00C00082871D1012D0BD07068BF
:100A1000216A00F480328A4205D1616A00F47010C4
:100A2000884200F02481012002B0BDE8F081A06975
:100A300000B30020C4F242200121C0F88014FFF767
:100A4000C1FD0546706A800774D4FFF7BBFD401BEB
:100A50000228F7D9D8E0F069C0001ED4F0694FF041
:100A6000010840F08050F061F06900F08050009083
:100A7000009814E00020C4F242200021C0F8801445
:100A8000FFF7A0FD054600BF706A8007B1D5FFF7EC
:100A900099FD401B0228F7D9B6E04FF0000847F255
:100AA0000007C4F200073868C00510D4386840F465
:100AB00080703860FFF786FD054600BF3868C005C6
:100AC00005D4FFF77FFD401B6428F7D99CE0E06860
:100AD00000286BD0012806D0316A052840F07F80BD
:100AE00041F004003062306A40F001007DE00027F0
:100AF000C4F2422700203866FFF764FD022D054648
:100B00000CD100BF3068800140F18F80FFF75AFDA3
:100B1000401B02284FF00300F4D9A9E0306880019F
:100B200040F1A580FFF74EFD401B02284FF0030067
:100B3000F4D99DE040F22800C2F20000006844F6BB
:100B4000D351C1F26201A0FB0101480A019000BF2C
:100B500000BF0198411E002801913FF44AAF00BF39
:100B60000198411E002801913FF443AF00BF019856
:100B7000411E002801913FF43CAF00BF0198411E87
:100B800000280191E4D134E700210160FFF71AFD4C
:100B9000054600BF306880077FF528AFFFF712FDDC
:100BA000401B02284FF00300F4D961E0306A20F0C6
:100BB00001003062306A20F004003062FFF702FD6D
:100BC000054641F2883700BF306A800720D5FFF71D
:100BD000F9FC401BB8424FF00300F5D948E021F082
:100BE00001003062306A20F004003062FFF7EAFC56
:100BF000054641F2883700BF306A800708D4FFF706
:100C0000E1FC401BB842F7D9032002B0BDE8F081F7
:100C1000B8F1000F3FF4F0AEF06920F08050F061C1
:100C2000E569002D7FF4ECAE21E0206AB0F5803F4D
:100C300005D17168A26821F40031114371607168B7
:100C4000626A21F474111043084370600120386611
:100C5000FFF7B8FC044600BF3068800107D4FFF7F7
:100C6000B1FC001B02284FF00300F5D900E0002082
:100C700002B0BDE8F0810000411E0020B0EB116F12
:100C80001CBF012070474EF21002CEF200025160EC
:100C90004EF62351CEF20001F0230B700721906035
:100CA0001160704710B590F83C20012A4FF0020205
:100CB00035D0012380F83C3080F83D200268D2F81E
:100CC00004E0D2F808C00C682EF07003234340F211
:100CD000FF74C4F20004A242536009DCB2F1804FF9
:100CE00012D040F20043C4F200039A420CD010E04C
:100CF00042F60043C4F201039A4205D040F60003D5
:100D0000C4F200039A4204D149682CF080031943CD
:100D100091600121002280F83D1080F83C201046AF
:100D200010BD0000002804BF0120704710B5044624
:100D300090F83D0028B9002084F83C00204600F0DF
:100D40006DF8022084F83D00206840F2FF730268CD
:100D5000C4F2000342F6004C9842C4F2010C14DCC9
:100D6000B0F1804F19D040F20041C4F20001884236
:100D700013D0984217DCB0F1804F1CD040F20041F4
:100D8000C4F20001884216D019E0604505D040F653
:100D90000001C4F200018842EBD1A16822F0700288
:100DA0000A439842E7DD604505D040F60001C4F2F1
:100DB0000001884203D1216922F440720A43A369E9
:100DC00022F08001D4F804E0E26819436045016034
:100DD000C262C0F828E002D16169CCF8301001216C
:100DE00041610269D20703D0026922F00102026167
:100DF000002084F8461084F83E1084F83F1084F8F0
:100E0000401084F8411084F8421084F8431084F8AC
:100E1000441084F8451084F83D1010BD81B000687E
:100E200040F20041C4F20001884201D001B0704795
:100E300041F21C00C4F20200016841F002010160AD
:100E4000006800F002000090009801B070470000B8
:100E500080B590F83C20012A4FF0020200F0C280D9
:100E6000012380F83C3080F83D20D0F800C04FF6D8
:100E70007772DCF8083023EA0202CCF808200B680D
:100E80004F2B28DC1F2B43DD202B44D0302B42D0AE
:100E9000402B40F0A980D1F804E0C968DCF820308C
:100EA000DCF8202022F00102CCF82020DCF8182009
:100EB00022F0F00242EA011123F00A0242EA0E0295
:100EC000CCF81810CCF82020DCF8081041F04701CD
:100ED00021F030017DE06F2B25DDB3F5005F46D0BA
:100EE000B3F5805F77D0702B7ED1D1E901E3C9687B
:100EF000DCF8082043EA0E0322F47F4243EA012192
:100F00001143CCF80810DCF8081041F0770160E0DC
:100F10000BB1102B68D1DCF8081021F070011943D7
:100F200041F0070155E0502B34D0602B5CD1D1F853
:100F300004E0C968DCF82030DCF8202022F0100240
:100F4000CCF82020DCF8182022F4704242EA01316B
:100F500023F0A00242EA0E12CCF81810CCF82020A0
:100F6000DCF8081041F0670121F0100131E0D1E90F
:100F700001E3C968DCF8082043EA0E0322F47F424B
:100F800043EA01211143CCF80810DCF8081041F4C1
:100F900080411EE0D1F804E0C968DCF82030DCF8BC
:100FA000202022F00102CCF82020DCF8182022F0CA
:100FB000F00242EA011123F00A0242EA0E02CCF8E2
:100FC0001810CCF82020DCF8081041F0570121F06F
:100FD0002001CCF808100022012180F83D100021EA
:100FE00080F83C10104680BD0122F5E7002804BFC0
:100FF000012070472DE9F04F81B0044690F83D0084
:101000000D4628B9002084F83C00204600F09AF8EC
:10101000022084F83D00206844F20702816840F213
:10102000FF73914381600268C4F2000342F6004CF2
:101030009842C4F2010C14DCB0F1804F19D040F298
:101040000041C4F20001884213D0984217DCB0F18D
:10105000804F1CD040F20041C4F20001884216D0FB
:1010600019E0604505D040F60001C4F20001884255
:10107000EBD1A16822F070020A439842E7DD604597
:1010800005D040F60001C4F20001884203D1216975
:1010900022F440720A43A36922F08001D4F804E0EC
:1010A000E268194360450160C262C0F828E002D1DD
:1010B0006169CCF830104FF0010EC0F814E00269FD
:1010C000D20703D0026922F00102026182688369BB
:1010D000D0F820C0D5E90018D5E9027B41EA020A20
:1010E000AA694FF6FF7923EA090347EA02224FF67D
:1010F000FC47BA43D5E9077643EA0B0329691A434B
:1011000042EA072242EA01112CF022026B6942EA0C
:10111000080241EA063142EA0312C0F808A08161E0
:10112000026284F846E084F83EE084F83FE084F808
:1011300042E084F843E084F83DE0002001B0BDE8DF
:10114000F08F000080B586B0006840F60001C4F260
:10115000000188424FF00001CDE90411CDE90211F0
:101160001FD0B0F1804F40D141F21800C4F202000C
:10117000416841F001014160416801F001010191C4
:101180000199016841F004010160006800F0040069
:10119000019001980320029040F60000C4F2010083
:1011A0001DE041F21800C4F20200416841F0040160
:1011B0004160416801F0040101910199016841F029
:1011C00008010160006800F0080001900198C0204B
:1011D000029040F60000C4F2010000F5806000219A
:1011E000CDE9031102A9FFF7D5F806B080BD0000D4
:1011F00080B590F83E2090F83F3090F842E090F8AB
:1012000043C004290DD0D1B9012A4FF0010208BF13
:10121000BEF1010F45D1022180F83E1080F8421046
:1012200030E0012B4FF0010208BFBCF1010F38D1B3
:10123000022180F83F1080F8431000681EE0012A68
:101240004FF0010208BF012B2BD1BEF1010F28D1B5
:10125000BCF1010F25D1022280F83E2080F83F200A
:1012600080F8422080F8432061B10068016A21F0D3
:1012700001010162016A41F00101016210216FF078
:10128000100203E0006801216FF00102036A1A40B6
:101290000262026A114301620168002241F0010109
:1012A0000160104680BD00002DE9F04190F83C300F
:1012B000012B03D102231846BDE8F0814FEAB202A8
:1012C0000123032A80F83C3000F2EA80DFE802F0D4
:1012D000023B77B303681E6A1A6A22F001021A629F
:1012E0001A46D3F804C052F8184F0D6824F073045E
:1012F0008F6844EA050E42F6004526F00204C4F267
:101300000105AB4244EA07040CD1CD6824F00C047B
:10131000D1E9056725F004052C432CF440752E43D4
:1013200046EA070CC3F804C0C3F818E04F6809691F
:101330005F631C629F6947F008079F619F6927F000
:1013400004079F61A8E003681C6A1A6A24F020045D
:1013500022F010021A621A46D3F804C052F8187F1D
:101360000E6827F4E6478D6847EA062E42F60046E7
:10137000C4F20106B34244EA05140FD1CD68D1E9A5
:1013800005876FF0400606EA05152CF4406624F048
:10139000C00446EA88062C4346EA870CC3F804C01A
:1013A000C3F818E04F6809699F631C629F6947F49E
:1013B00000679F619F6927F480679F616BE0036806
:1013C0001C6A1A6A24F4007422F480721A621A46A3
:1013D000D3F804C052F81C7F0E6827F073078D689D
:1013E00047EA060E42F60046C4F20106B34244EA5A
:1013F00005240FD1CD68D1E905872D0240F2FF46C3
:10140000B5432CF4405624F4406446EA08162C43B5
:1014100046EA071CC3F804C0C3F81CE04F6809691A
:10142000DF631C62DF6947F00807DF61DF6927F0CF
:101430000407DF6130E003681C6A1A6A24F4005470
:1014400022F480521A621A46D3F804C052F81C7F64
:101450000E6827F4E6478D6847EA062E42F60046F6
:10146000C4F20106B34244EA053404D14D692CF4B8
:10147000804747EA851CC3F804C0C3F81CE04F68E6
:1014800009691F641C62DF6947F40067DF61DF6977
:1014900027F48067DF610902136819430023116094
:1014A000002180F83C101846BDE8F081002804BFF8
:1014B0000120704710B5044690F83D0028B900207F
:1014C00084F83C00204600F06DF8022084F83D00CE
:1014D000206840F2FF730268C4F2000342F6004C39
:1014E0009842C4F2010C14DCB0F1804F19D040F2E4
:1014F0000041C4F20001884213D0984217DCB0F1D9
:10150000804F1CD040F20041C4F20001884216D046
:1015100019E0604505D040F60001C4F200018842A0
:10152000EBD1A16822F070020A439842E7DD6045E2
:1015300005D040F60001C4F20001884203D12169C0
:1015400022F440720A43A36922F08001D4F804E037
:10155000E268194360450160C262C0F828E002D128
:101560006169CCF83010012141610269D20703D0D2
:10157000026922F001020261002084F8461084F81A
:101580003E1084F83F1084F8401084F8411084F82D
:10159000421084F8431084F8441084F8451084F80D
:1015A0003D1010BD7047000041B1082909D0042941
:1015B00014BF00F1410200F13F0204E000F13E02DD
:1015C00001E000F140021278012A1CBF012070479F
:1015D000022241B1082909D0042914BF80F8412012
:1015E00080F83F2004E080F83E2001E080F84020B1
:1015F000006801F01F010122036A8A4023EA020108
:101600000162036A42F64441C4F201011A43A1F1A6
:101610004403984202620FD040F2FF71C4F200010D
:10162000884213DCB0F1804F1CD040F20041C4F27C
:101630000001884216D01CE00A6842F400420A60A9
:1016400040F2FF71C4F200018842EBDD42F6004136
:10165000C4F20101884205D040F60001C4F2000145
:10166000884206D1816801F00701062904BF0020E5
:101670007047016841F001010160002070470000DF
:101680007047000070470000F0B581B00446006864
:101690000168C268456901F02F03202B02F0200386
:1016A00006D12BB1204601B0BDE8F04000F0C8BF24
:1016B0005FEA017C07D005F0010E12F4907F8EF0F6
:1016C00001052FD175B3236B1140CA0617D5012B25
:1016D00015D10021009101680091416800910099A5
:1016E0004169490600F1C880A18DE28DE38D002B90
:1016F0001CBF891A5FEA014200F080823FE00A06BF
:1017000000F17381490640F17982C16821F04001FE
:10171000C1602021204684F8411001B0BDE8F040AE
:1017200000F07ABACE0718BF12F4807603D0666C48
:1017300046F00106666401F00407012686EA970771
:101740002F4300F0658101F0020786EA5706354312
:1017500000F0698153EA0E0318BF0123BCF1000FAA
:1017600040F16D81002B00F06A81636C43F0080347
:101770006364636C002B40F066813FE2206850E8B0
:10178000030F226820F4907042E80303BBB3206883
:1017900050E8030F226820F4907042E8030373B30B
:1017A000206850E8030F226820F4907042E8030399
:1017B0002BB3206850E8030F226820F4907042E8B1
:1017C0000303002BDAD11AE0206850E8050F2268E5
:1017D00020F0010042E80503DBB1206850E8050F66
:1017E000226820F0010042E8050393B1206850E828
:1017F000050F226820F0010042E805034BB1206884
:1018000050E8050F226820F0010042E80503002B94
:10181000DAD1202084F8420000202063206850E8BC
:10182000030F226820F0100042E80303DBB12068B8
:1018300050E8030F226820F0100042E8030393B140
:10184000206850E8030F226820F0100042E80303EC
:101850004BB1206850E8030F226820F0100042E8E6
:101860000303002BDAD1022289B22046626301B061
:10187000BDE8F040FFF704BFE26B11684B689EB211
:10188000002E00F0BB81A18D8E4280F0B781E385F0
:101890009269202A00F09E8050E8030F216820F40E
:1018A000807041E80302E2B1206850E8030F21682C
:1018B00020F4807041E803029AB1206850E8030FD9
:1018C000216820F4807041E8030252B1206850E89A
:1018D000030F216820F4807041E803020AB12068F8
:1018E000DAE7206850E8050F216820F0010041E8A0
:1018F0000502BAB3206850E8050F216820F0010006
:1019000041E8050272B3206850E8050F216820F015
:10191000010041E805022AB3206850E8050F21685C
:1019200020F0010041E80502002ADAD11AE020681F
:1019300050E8050F216820F0400041E80502DAB1C7
:10194000206850E8050F216820F0400041E80502BA
:1019500092B1206850E8050F216820F0400041E86E
:1019600005024AB1206850E8050F216820F04000C8
:1019700041E80502002ADAD1202084F84200002044
:101980002063206850E8030F216820F0100041E830
:101990000302DAB1206850E8030F216820F010003C
:1019A00041E8030292B1206850E8030F216820F05B
:1019B000100041E803024AB1206850E8030F216893
:1019C00020F0100041E80302002ADAD1E06BFEF7B4
:1019D00051FCA18D02206063E08D081A81B220467F
:1019E00001B0BDE8F040FFF74BBE94F8411021294B
:1019F00040F00481A168B1F5805F03D1216900291D
:101A000000F0F080216A4A1C226209784160F0E00F
:101A1000676C47F00207676401F0020786EA570621
:101A200035437FF497AE656C45F00405656453EA71
:101A30000E0318BF0123BCF1000F3FF593AE636C9A
:101A4000002B00F0DB801140890603D5204600F012
:101A5000F7FD20684169626C01F0400102F0080264
:101A6000891800F0A28000BF50E8030F216820F41D
:101A7000907041E80302C2B3206850E8030F216868
:101A800020F4907041E803027AB3206850E8030F15
:101A9000216820F4907041E8030232B3206850E8D6
:101AA000030F216820F4907041E80302EAB1206836
:101AB000DAE700BF206850E8050F216820F0010038
:101AC00041E80502DAB1206850E8050F216820F0EE
:101AD000010041E8050292B1206850E8050F216835
:101AE00020F0010041E805024AB1206850E8050FE6
:101AF000216820F0010041E80502002ADAD1206BBC
:101B0000012824D1206850E8030F216820F010003C
:101B100041E80302DAB1206850E8030F216820F0A1
:101B2000100041E8030292B1206850E8030F2168D9
:101B300020F0100041E803024AB1206850E8030F8A
:101B4000216820F0100041E80302002ADAD12020A9
:101B500084F84200002020632068416949063BD593
:101B600050E8050F216820F0400041E805021AB353
:101B7000206850E8050F216820F0400041E8050288
:101B8000D2B1206850E8050F216820F0400041E8FC
:101B900005028AB1206850E8050F216820F0400056
:101BA00041E8050242B12068DAE72046FFF76AFD06
:101BB0000020606401B0F0BDE06B68B142F23561B5
:101BC000C0F600014163FEF779FBB8B1E06B416BF1
:101BD00001B0BDE8F0400847204601B0BDE8F04044
:101BE000FFF750BD216A31F8022B6FF35F2242608C
:101BF0002162E18C01390A04E18401D001B0F0BD19
:101C0000C16821F08001C160C16841F04001C1603C
:101C100001B0F0BD7047000070470000FEE7000013
:101C20002DE9F04186B0002641F218000596C4F275
:101C30000200016840F6004441F0200101600168A3
:101C4000C4F2010401F02001019101990168002210
:101C500041F00401016001684FF4704801F0040193
:101C600001910199016841F00801016000684FF499
:101C7000704100F00800019001982046FEF79CFC9E
:101C8000FC2002ADCDE902060127A4F580602946BB
:101C90000497FEF77FFB4FF4406002A9C1C12046C4
:101CA0002946FEF777FB0220CDE9028704960590CE
:101CB00020462946FEF76EFB06B0BDE8F081000025
:101CC00010B58CB040F2F0000024C2F200004FF0DA
:101CD0008041C0E9001401214FF6FF72CDE90314E1
:101CE000CDE90514CDE90744CDE9091403A9CDE9EF
:101CF0000044C0E90242046184610B94FFF776F965
:101D0000002818BFFEF7B0FA40F2F000C2F200005F
:101D10006946CDE90044FEF7C5FF002818BFFEF76D
:101D2000A3FA0CB010BD0000B0B594B040F200456D
:101D300040F23810C4F200050021C2F20000472230
:101D40006423CDE90D11CDE90B110991CDE90711FE
:101D5000CDE90511CDE90311CDE90111C0E900522A
:101D6000C0E9021301618161FEF7DCFF002818BFA2
:101D7000FEF77AFA4FF480500B9040F23810C2F21E
:101D800000000BA9FFF764F8002818BFFEF76CFAF3
:101D900040F23810C2F20000FFF788FB002818BF9D
:101DA000FEF762FA40F238100024C2F2000008A9DF
:101DB000CDE90844FEF776FF002818BFFEF754FA75
:101DC0006020CDE9010440F23810C2F2000001A900
:101DD000082203940594FFF767FA002818BFFEF75E
:101DE00043FA40F23814C2F2000401A920460C2242
:101DF000FFF75AFA002818BFFEF736FA21680020CC
:101E0000A942CDE912001190109001D014B0B0BDDC
:101E100041F21800C4F20200016841F008010160BB
:101E2000006810A900F008000F900F980320109090
:101E300002201190139005F58430FEF7ABFA14B030
:101E4000B0BD000010B58CB040F2801040F600012B
:101E50000024C2F20000C4F20001C0E90014012114
:101E60004FF6FF72CDE90314CDE90514CDE907441F
:101E7000CDE9091403A9CDE90044C0E90242046197
:101E800084610B94FFF7B2F8002818BFFEF7ECF955
:101E900040F28010C2F200006946CDE90044FEF72E
:101EA00001FF002818BFFEF7DFF90CB010BD0000DD
:101EB000FEE70000FEE7000010B5B02000F09AFA3F
:101EC000102000F097FA0020002400F093FA00BFE1
:101ED000002000F0CBFA601C44B2B4F1FF3FF7DC05
:101EE000B12000F087FA102000F084FA00200024CE
:101EF00000F080FA002000F0B9FA601C44B2B4F19E
:101F0000FF3FF7DCB22000F075FA102000F072FA03
:101F10000020002400F06EFA002000F0A7FA601CF8
:101F200044B2B4F1FF3FF7DCB32000F063FA1020B5
:101F300000F060FA0020002400F05CFA002000F0BD
:101F400095FA601C44B2B4F1FF3FF7DCB42000F016
:101F500051FA102000F04EFA0020002400F04AFA56
:101F6000002000F083FA601C44B2B4F1FF3FF7DCBC
:101F7000B52000F03FFA102000F03CFA00200024C9
:101F800000F038FA002000F071FA601C44B2B4F19D
:101F9000FF3FF7DCB62000F02DFA102000F02AFAFF
:101FA0000020002400F026FA002000F05FFA601CF8
:101FB00044B2B4F1FF3FF7DCB72000F01BFA102069
:101FC00000F018FA0020002400F014FA002000F0BD
:101FD0004DFA601C44B2B4F1FF3FF7DC10BD0000C5
:101FE000B0B540F60044C4F201040546C2092046DB
:101FF0004FF40071FEF7E0FA20464FF480710122A1
:10200000FEF7DAFA20464FF480710022FEF7D4FA88
:10201000C5F3801220464FF40071FEF7CDFA20463A
:102020004FF480710122FEF7C7FA20464FF4807109
:102030000022FEF7C1FAC5F3401220464FF40071AA
:10204000FEF7BAFA20464FF480710122FEF7B4FA87
:1020500020464FF480710022FEF7AEFAC5F300125D
:1020600020464FF40071FEF7A7FA20464FF4807126
:102070000122FEF7A1FA20464FF480710022FEF7FC
:102080009BFAC5F3C00220464FF40071FEF794FAA4
:1020900020464FF480710122FEF78EFA20464FF45D
:1020A00080710022FEF788FAC5F3800220464FF4C3
:1020B0000071FEF781FA20464FF480710122FEF78D
:1020C0007BFA20464FF480710022FEF775FAC5F3C3
:1020D000400220464FF40071FEF76EFA20464FF49E
:1020E00080710122FEF768FA20464FF480710022C9
:1020F000FEF762FA05F0010220464FF40071FEF788
:102100005BFA20464FF480710122FEF755FA204613
:102110004FF480710022FEF74FFA20464FF4807191
:102120000122FEF749FA20464FF480710022BDE8F3
:10213000B040FEF741BA000010B586B00020049010
:1021400041F21800C4F20200016840F6004441F078
:10215000080101600068C4F2010400F00800019069
:1021600001984FF4407002901120039003200590D5
:1021700002A92046FEF70EF920464FF48071012295
:10218000FEF71AFA20464FF400710122FEF714FA06
:10219000AE2000F02FF9D52000F02CF9802000F0BF
:1021A00029F9A82000F026F93F2000F023F9D320D8
:1021B00000F020F9002000F01DF9402000F01AF98D
:1021C000A12000F017F9C82000F014F9DA2000F07F
:1021D00011F9122000F00EF9812000F00BF9CF2048
:1021E00000F008F9D92000F005F9F12000F002F91B
:1021F000DB2000F0FFF8302000F0FCF8A42000F015
:10220000F9F8A62000F0F6F88D2000F0F3F814207D
:1022100000F0F0F8AF2000F0EDF8FFF74DFE06B04B
:1022200010BD00002DE9F04780467E2000EB4800FD
:1022300017466FF0070240F0B00002EBC104C0B2D5
:10224000E5B200F0D7F8280900F11009484600F07F
:10225000D1F804F0080A504600F0CCF844F20A50D5
:10226000C0F6000000EB07114FF60060CFF6FF70DC
:10227000085CA1F5007600F0F9F87078B778F4788A
:10228000357900F0F3F8384600F0F0F8204600F019
:10229000EDF8284600F0EAF8707900F0E7F8B07938
:1022A00000F0E4F8F07900F0E1F84FF0FF3000EBD7
:1022B000480040F0B000C0B200F09CF8484600F082
:1022C00099F8504600F096F8307A00F0CFF8707A1E
:1022D00000F0CCF8B07A00F0C9F8F07A00F0C6F857
:1022E000307B00F0C3F8707B00F0C0F8B07B00F0EA
:1022F000BDF8F07BBDE8F04700F0B8B82DE9F04F2D
:1023000083B0002B02925CD01C468A468346981EFE
:102310005D42C3F10106DF1C4FF0000842F2107964
:1023200001906FEA0801A94208EB0A0023D100BF1F
:102330000121029AB2FBF1F14CF6CD42CCF6CC422F
:10234000A1FB0223DA0802EB8202A1EB420141F079
:102350003001CAB2C1B25846FFF764FF08F1010864
:102360000136A04507F103072BD06FEA0801A94207
:1023700008EB0A00DCD0019A2144A2EB0802032AF0
:1023800001F0030202D2012152B9D2E707F00301A2
:1023900073180121043301FB09F1FBD1002AC8D0D5
:1023A000012A03D101EB81014900C2E74FF47A739E
:1023B0004B43022A4FF0640208BF01FB02F31946A7
:1023C000B7E703B0BDE8F08FF0B581B014461278DE
:1023D0006AB10D46064600277819C1B2D2B230461E
:1023E000FFF720FF0137F8B2225C002AF4D101B0D8
:1023F000F0BD0000B0B540F60044C4F2010405464B
:1024000020464FF400710122FEF7D6F820464FF423
:1024100080710122FEF7D0F820464FF400710022AF
:10242000FEF7CAF820464FF480710022FEF7C4F888
:102430007820FFF7D5FD0020FFF7D2FD2846FFF7F3
:10244000CFFD20464FF400710022FEF7B5F820467C
:102450004FF480710122FEF7AFF820464FF400716F
:102460000122BDE8B040FEF7A7B80000B0B540F6C5
:102470000044C4F20104054620464FF400710122D5
:10248000FEF79AF820464FF480710122FEF794F887
:1024900020464FF400710022FEF78EF820464FF4DC
:1024A00080710022FEF788F87820FFF799FD402020
:1024B000FFF796FD2846FFF793FD20464FF4007185
:1024C0000022FEF779F820464FF480710122FEF7D2
:1024D00073F820464FF400710122BDE8B040FEF7CA
:1024E0006BB80000704700007047000010B540F660
:1024F0000044C4F2010420464FF480510122FEF74B
:102500005BF820464FF400510022BDE81040FEF772
:1025100053B8000040F23811C2F200010968B0F56A
:102520007A7F28BF4FF47A70C863704710B540F6C1
:102530000044C4F2010420464FF480410122FEF71A
:102540003BF820464FF400410022BDE81040FEF762
:1025500033B8000040F23811C2F200010968B0F54A
:102560007A7F28BF4FF47A7008647047B0B540F2A4
:102570002C04C2F200042068002500683C2145625A
:102580002068FEF735FEE0683C2100684562E0689F
:10259000FEF72EFE40F2EF00C2F200000570B0BD63
:1025A00040F22C00C2F20000016800220968496A6A
:1025B0004160016809684A62C1680968496A016145
:1025C000C06801210068426240F2EF00C2F20000E0
:1025D0000170704770B540F2EF05C2F2000528782F
:1025E000012818BF70BD40F22C06C2F200067068C8
:1025F00001F006FD0021C4F2482101F095FD44F2EE
:102600000004C4F21C64214601F0E8FBB0603069AC
:1026100001F0F6FC0021CCF2482101F085FD2146B5
:1026200001F0DCFB70610020287070BDFDF7D0BFA9
:1026300070470000406A0021C185C184FFF722B8BD
:1026400081B090F84210222920D18368B3F5805FD1
:1026500008D10169002964D000F128010A680368E3
:102660005B680AE0014651F8282F13B90369002B73
:10267000F5D003685B6803F07F0313700A680132CA
:102680000A60C18D01390A04C18501D001B07047CB
:102690000168CA6822F02002CA60CA6822F4807207
:1026A000CA604A6922F001024A61202280F8422071
:1026B00000224263036B012B3CD1026351E8031FEC
:1026C000026821F0100142E803130168DBB151E810
:1026D000031F026821F0100142E80313016893B15F
:1026E00051E8031F026821F0100142E8031301685A
:1026F0004BB151E8031F026821F0100142E80313B7
:102700000168002BDAD10A68D20606D500220092B1
:102710000A680092496800910099818D01B0FEF726
:10272000AFBF0168826A49686FF35F2122F8021B1C
:102730008262A6E701B0FFF76DBA000040F2C81050
:10274000C2F20000FEF7A0BFFEE700002DE9F0474F
:1027500040F20809C2F20009D9F800000421FDF78F
:1027600025FF0646B0FA80FA0028D9F804004FF099
:1027700000054FF0080104BF0025CCF24015FDF71D
:1027800015FF804628464FF0414101F08FFA074679
:102790000124002E08BF0224B8F1000F18BF2F46F5
:1027A000D9F808004FF0100118BF4FEA5A14FDF78E
:1027B000FDFE00210646CCF28001384601F076FA93
:1027C0000546002E18BF3D46D9F80C004FF02001F9
:1027D00008BF0134FDF7EAFE074628464FF04041A6
:1027E00001F064FA0646002F18BF2E46D9F81000F3
:1027F0004FF0400108BF0134FDF7D8FE07463046D0
:102800004FF0804101F052FA0546002F18BF3546BF
:10281000D9F814004FF0800108BF0134FDF7C6FE5F
:10282000074628464FF0814101F040FA0646002F46
:1028300018BF2E46D9F818004FF4806108BF013444
:10284000FDF7B4FE054630464FF0824101F02EFA06
:102850000746002D18BF3746D9F81C004FF4006119
:1028600008BF0134FDF7A2FE50B1200610D140F29E
:10287000A801C2F20001C86801220A70BDE8F08711
:102880000021C4F24011384601F010FA0746013425
:1028900040F2A800C2F2000000210170E0B201F095
:1028A000C7FB0146384601F099FABDE8F087000001
:1028B0002DE9F04F87B0FFF749FF40F2A80BC2F2B5
:1028C000000B0021CBF8040020F00040CCF24001C6
:1028D00001F0ECF94FF0404101F026FC01F0BAF9AB
:1028E00000F084FB0024C3F6F0740022234600F0BD
:1028F000F1FC02460B460020214600F0A7FD00F047
:10290000B7FC4FF08141044601F00EFC4FF08241CC
:1029100001F0CCF94DF20A75C3F6A34504902046A8
:10292000294601F001FC0146284601F0C9FC4CF69D
:10293000CD410390CBF6CC61204601F0F5FB4CF67F
:10294000CD41C3F64C7101F0B1F90290DBE90147CA
:102950000021DBE9035824F00040C4F24001059057
:1029600001F029FA06462046394601F09FF907464C
:102970000021002E08BF3746C4F2F011384601F09E
:1029800005FA002100281CBF0027C4F2F017CCF282
:10299000F011384601F00FFA0028204629461CBFE6
:1029A0000027CCF2F017CBF80870069401F088FCF1
:1029B00049F69A11C3F6996101F0B6FB43F233313F
:1029C0000546C3F63371404601F0AEFB014628468A
:1029D00001F06CF940F2E001C2F200010246DBF8BE
:1029E000280009680192CBF8102001F069FC002151
:1029F000C4F23431054601F0C9F900210646CCF293
:102A0000B431284601F052F904460021002E08BFD7
:102A10002C46CCF23431204601F0CDF90021064697
:102A2000C4F2B431204601F041F90546DBF81C0040
:102A3000002E08BF2546294601F038F9DBF824109E
:102A40008146CBF81C00284601F03AFC40F2000A0F
:102A5000C4F2482A8046CBE908054846514601F0B1
:102A600095F910B1CBF81CA00BE040F2000ACCF2B3
:102A7000482A4846514601F090F9002808BFCBF893
:102A80001CA049F69A11C3F6D971284601F04CFBF7
:102A90004CF6CD410446C3F6CC51404601F044FB10
:102AA0000146204601F002F99BF800800546B8F186
:102AB000000F02D0DDF818A029E0DDF818A0049975
:102AC000504601F031FB04460398394601F02CFBD7
:102AD0000146204601F0EAF80446DDE9011001F064
:102AE00023FB214601F0E2F843F23331C3F63371A0
:102AF00001F01AFB49F69A110446C3F6996128467B
:102B000001F012FB0146204601F0D0F805460021F5
:102B100025F00040C4F2701101F038F9044628464F
:102B20004FF07F5101F000FB06460021002C08BF4A
:102B30002E46C4F2A021304601F028F900210028D9
:102B40001CBF0026C4F2A026CCF2A021304601F022
:102B500032F943F2333100281CBF0026CCF2A02604
:102B6000C3F63371304601F0DFFADBF8142049F682
:102B70009A110446C3F69961104601F0D5FA214630
:102B800001F094F80446B8F1000FCBF80CA0CBF894
:102B90001400CBF8180005D040F20008C4F2B418B5
:102BA000214634E000200599C4F2A00001F088FB22
:102BB0004FF0404101F0B8FA01F04CF800F016FA7D
:102BC0000025C3F6F07500222B4600F083FB024679
:102BD0000B460020294600F039FC02460B46002037
:102BE000294600F04DFF00F043FB49F69A11C3F669
:102BF000996101F099FA4FF07C5101F057F80021EA
:102C0000C4F2962101F090FADBF81810804621F00A
:102C100000460021C4F2A001304601F0C5F8A8B971
:102C20000021C4F2A011304601F0B0F870B90021C3
:102C3000CCF2A011304601F0D1F84CF6CD41C3F6EC
:102C40004C6101F071FA4FF07E5126E00021C4F290
:102C5000A011304601F0A8F8002840F0A380002120
:102C6000C4F24821304601F091F8002840F09A80E3
:102C70000020C4F2A010314601F022FB0021C4F272
:102C8000F01101F0ABF849F69A11C3F6996101F021
:102C90004BFA4CF6CD41C3F64C7101F007F80746EC
:102CA000DBF82000002120F00040CCF2202101F0D0
:102CB00095F84FF07E5100F0F9FF49F69A16C3F6E9
:102CC00019763146054601F076F800284046394627
:102CD0001CBF49F69A15C3F6197501F025FA294665
:102CE00001F022FA0021C4F2D221054601F04EF88B
:102CF000002100281CBF0025C4F2D225C4F23421D3
:102D0000284601F058F80021002824F00040C4F2C1
:102D1000A0211CBF0025C4F2342501F05FF84CF659
:102D2000CD41C3F6CC6101F0FFF9314600F0BEFFA2
:102D300006462046002101F029F804464FF0804065
:102D4000314601F0BDFA074630462946002C1CBF2B
:102D50003846374601F0E8F904463846294601F07E
:102D6000E3F90546204601F02FF90446284601F014
:102D70002BF9002C05D4B4F57A7FC8BF4FF47A74D0
:102D800000E00024B0F57A7FA8BF4FF47A7020EA03
:102D9000E075A0B2FFF7BEFBA8B207B0BDE8F04FE8
:102DA000FFF7D8BB0021C4F24821304600F0FCFFF9
:102DB00010BB0020C4F24820314601F081FA002106
:102DC000C4F2F01101F00AF84CF6CD41C3F64C61A3
:102DD00001F0AAF94FF07C5100F068FF49F69A1112
:102DE000C3F69961074600F0D8FF002804BF49F6F2
:102DF0009A17C3F6996753E74FF07E5750E70000E4
:102E000090B0FDF7F3FB002401204FF48031CDE9B1
:102E10000B44CDE909440690CDE907140A90022538
:102E20004FF4E010CDE90D510F9006A80594CDE9BF
:102E30000344CDE90144FDF74BFD20B1EFF31080D1
:102E400072B600BFFEE70F20CDE901054FF48060A8
:102E50000394CDE9040401A80221FDF75DFC20B133
:102E6000EFF3108072B600BFFEE7FEF7D9FEFEF763
:102E700027FFFEF759FFFEF7E5FFFFF777FB40F26C
:102E80003814C2F2000420460821FEF78DFB2046CC
:102E90000C21FEF789FBFFF729FBFFF747FB4FF4F7
:102EA0009670FFF737FB4FF49670FFF753FBFFF771
:102EB00043F9012001214122FFF7B4F90AA20120C0
:102EC0000321FFF781FA0220012143F23902052391
:102ED000FFF714FAFFF764FBFFF77CFBFFF7E8FC52
:102EE0000A20FDF743FAF5E748656C6C6F576F727F
:102EF0006C642100490050EAC12018BF04204A0D2B
:102F000018BF40F0010040F2FF72B2EB515F08BF02
:102F100040F00200012808BF052070472DE9F0416C
:102F20004F1E00EBC7010446D1E9000115461E46BD
:102F300037F006020DD02A46334600F061FC7F1EB2
:102F400004EBC703D3E9002300F0C4F937F006020D
:102F5000F1D1022F25D0042F13D0062F18BFBDE8C2
:102F6000F0812A46334600F04BFCD4E90A2300F0F6
:102F7000B1F92A46334600F043FCD4E9082300F0B7
:102F8000A9F92A46334600F03BFCD4E9062300F0B9
:102F9000A1F92A46334600F033FCD4E9042300F0BB
:102FA00099F92A46334600F02BFCD4E9022300F0BD
:102FB00091F92A46334600F023FCD4E90023BDE80A
:102FC000F04100F087B9012201F021BA40F201324C
:102FD00000204FF0E04101F01ABA0000024A002040
:102FE000110701F014BA000001FDFFFF2DE9F04DBB
:102FF000894BCE0F21F0004784B005460C469F4216
:1030000030D38648874211D3C7F31300284305D035
:1030100004B02846BDE8F04DFFF7D5BF002E1ABF1B
:1030200000200146284604B0BDE8F08D7C4A2846C1
:1030300000F0E4FC07D20220FDF7CEF804B0BDE8B2
:10304000F04DFFF7C3BF774A774B2846214600F083
:103050009BFB07D20220FDF7BFF804B0BDE8F04D9E
:10306000FFF7BCBF7148B84248D27148874215D2B9
:103070007048784400EBC6002146D0E9002328467A
:1030800000F0FEFCCDE900016B48784400EBC6007F
:10309000D0E900ABC6F10100861B26E0674A684B09
:1030A0002846214600F0ACFB664A7A4402EBC60390
:1030B000D3E9002300F00EF900F020FB064600F0F3
:1030C0004CFB07468846604A604B00F099FB2A4655
:1030D000234600F0C9FCCDE900015D4A5D4B38464E
:1030E000414600F08DFB82468B46DDE900015246E9
:1030F0005B4600F0C5FC05460C4618E05648874282
:1031000014D2564A564B2846214600F0E3F8554E55
:103110000022334600F072FC08D204B03346284641
:103120002146BDE8F04D002200F0D4B800262A4622
:1031300023461046194600F063FB804602464A4883
:103140000F460B4605217844FFF7E8FE42463B4612
:1031500000F056FB2A46234600F086FC07468846C8
:10316000E6B302460B4600204FF0804100F088FC99
:10317000CDE902013A4643462846214600F040FB8D
:10318000DDE9022300F062F952465B4600F06CFC78
:10319000DDE9002300F074FC0022324B00F064FCF7
:1031A0006FF47F729642A2BF01EB065104B0BDE8F6
:1031B000F08D4FF07A5202EB065211442B4A01F087
:1031C00026F904460D46FFF795FE042808BFFFF7D1
:1031D00005FF204604B02946BDE8F08DFFE7002238
:1031E0004FF0804300F04CFC82460E463A46434680
:1031F0002846214600F004FB5246334600F026F9EB
:103200002A46234600F03CFC04B00022BDE8F04D05
:10321000144B00F029BC0000422E86400000F07FD5
:10322000EF39FAFE51302DD5104987C0422ED63FD6
:10323000B2A2F03F3A14000032140000FE822B6567
:103240004715F73FF21300000000E0FE422EE63F74
:10325000763C7935EF39EA3D0000303E9C750088B8
:103260003CE4377E0000F03F8613000018FCFFFFAF
:1032700021F0004201F00043A2F16052B2F5801F3C
:1032800028BFD2F17F6C0BD95FEA001C43EAC2026F
:1032900042EB507018BF704728BF20F00100704704
:1032A000B2F5801FBCBF184670474FEA410C1CF5B1
:1032B000001F02D2084600F0FEBF70B500F04AFBC6
:1032C00000000089FFF7F6BF4FF00040A0F5800036
:1032D0007047000010B591EA030F48BF83F0004328
:1032E00000F1D683841A71EB030C05D2121943EB5B
:1032F0000C03001B61EB0C014FEA1154A4EB135CAF
:10330000DFF81CE11EEA430F18BF9EEA445F73D04A
:1033100021EA045123EA0E0343F48013DCF1200E6A
:1033200032D322FA0CFE10EB0E0023FA0CFE41EB16
:103330000E01CCF1200E03FA0EFE10EB0E00CCF1C4
:10334000200E51F10001B1F5801F32D201EB045182
:1033500012FA0EF2BDE8104058BF7047401C38BF4B
:103360005FEA420218BF7047002814BF20F0010036
:1033700041F100014FEA410313F5001F38BF7047C8
:10338000A1F1C04100F034BB012A43EB0302ACF1D0
:10339000200CDCF11F0E32BF4FF0000E23FA0CF3AD
:1033A00010EB030041EB0451B4EB115FD0D0A1EB63
:1033B000045101F58011490801EB04515FEA300026
:1033C0000ED350F1000038BF12FA0EFE08D1BDE84E
:1033D0001040C9E7401C38BF5FEA4202CAD1C3E7C8
:1033E000BDE810404FEA410313F5001F38BF704796
:1033F000A1F1C04100F0FCBA9EEA445F08D011EA96
:103400005E0FBDE8104004BF01F00041002070478E
:10341000BDE8104070B500F09DFA00BF64FBBE3EF1
:103420000000E0FF02494FF0000000F0BEBF00BF07
:103430000000F87F491058BFC1F140415B1058BFF0
:10344000C3F140438B42EFF3008070472DE9C04148
:1034500030B4DFF8A0C23CEA111418BF3CEA1314E0
:1034600000F0EC801CEA111481EA030544EAD574EB
:1034700018BF1CEA131500F0C780A4EB050404F183
:103480007F7404F500344FF0004545EAC12145EA58
:10349000C32341EA505143EA52534FEAC0204FEA56
:1034A000C222994208BF904200F09C804FEA136507
:1034B0000FF24016765D4FEA134506FB05F7C7F19C
:1034C000807706FB07F74FEAD737A7FB03687642FA
:1034D000A7FB06CEC8F5803838BFA8F1010807FB66
:1034E00008E6A6FB028C4FF0000EE6FB03CEDCF1F3
:1034F000000CCEF1004E38BFAEF1010EA6FB0C5809
:103500004FF00007E6FB0E87A1FB08C6A0FB07CE25
:1035100016EB0E064FF0000545F10005E1FB0765CF
:1035200015F1E04E7EBFA4F580345FEA46066D419A
:1035300016F1800745F100054FEA172747EA0567AE
:103540004FEA15254FEA0666A6F1DE46B6F1805F22
:103550001FD9384605EBC47124F0010C01EB0C11A6
:10356000BCF1FE6F02D8F0BCBDE8008124425CBF14
:1035700001F5801E9EEAC47F02D4F0BCBDE8008144
:10358000244238D4A1F1C041F0BCBDE8004100F0B4
:103590002FBA4FEAD02040EA41504FEAD1214FEAFA
:1035A000D22242EA43524FEAD323A7FB028607FB0B
:1035B000036605FB02661EEA0E0F58BFA6EB005617
:1035C000B6EB00564FEA520E4EEAC37E18EB0E0ED3
:1035D00056EB530EBDD518EB02085E417F1C55F12A
:1035E0000005B6E74FF480154FF000074FF00006D6
:1035F0004FF00008ADE701F1C04101F000414FF08C
:103600000000F0BCBDE800810CEA131511EA0C1FA4
:1036100000D00CE013EA0C1F00F025804FF00000F2
:1036200081EA030101F00041F0BCBDE80081F0BC7B
:10363000BDE8004181EA030100F0DAB9F0BCBDE861
:10364000004170B500F086F9097EFC3E00F007B835
:103650004FF0000081EA030101F00041704781EA68
:10366000030100F0C5B9F0BCBDE8004122494FF0AC
:1036700000007047FFFDFBF9F7F5F4F2F0EEEDEB1B
:10368000E9E8E6E4E3E1E0DEDDDBDAD8D7D5D4D360
:10369000D1D0CFCDCCCBCAC8C7C6C5C4C2C1C0BFAC
:1036A000BEBDBCBBBAB9B8B7B6B5B4B3B2B1B0AFB2
:1036B000AEADACABAAA9A8A8A7A6A5A4A3A3A2A196
:1036C000A09F9F9E9D9C9C9B9A9999989797969551
:1036D00095949393929191908F8F8E8E8D8C8C8BED
:1036E0008B8A898988888787868585848483838275
:1036F000828181800000FF070000F87F4FEA4103CC
:103700004FEA5353A3F58063D3F11E03C8BFD3F12F
:10371000210C0CDD4FF0004242EAC12242EA505235
:1037200032FA03FC8CEAE17CACEBE1707047102BC1
:10373000C4BF0020704703F5787CBCF1FF3F04D084
:103740006FF0004282EA2100704770B500F002F984
:103750004992248000207047F2E710F0004248BFF1
:103760004042B0FA80F310FA03F10AD0C3F11D030E
:1037700003F5806302EB03524FEA415002EBD12183
:1037800070474FF00000704751EA030C17D41CF546
:10379000801F58BFBCF5801F00F10680994218BFFA
:1037A000704708BF9042704707D711F5801F58BF78
:1037B00013F5801F19D499427047894270471CF550
:1037C000801F08D5BCF5801FF7D58B4218BF704706
:1037D00008BF824270474FF4001C1CEB410F38BFFA
:1037E0001CEB430F01D28B42704770B500F0B2F86A
:1037F000922449004FF000514FF08053FFF71ABE5A
:1038000070B5DFF848C11CEA111E1EBF1CEA131573
:103810009EEA0C0F95EA0C0F00F06F8081EA03041A
:103820004EEAD47EAE4421EA4C1123EA4C1341F413
:10383000801143F48013AEF17F7EA1FB024CA0FB0C
:103840000365361955EB0C05A1FB034C4CF1000345
:10385000A0FB021C16EB0C06654153F10003094264
:1038600018BF46F0010613F4007F0BD14FEA033175
:103870004FEA053041EA155140EA165034036FF023
:1038800003020AE04FEAC3214FEAC52041EA55513D
:1038900040EA5650F4026FF0020202EB2E4201EBB6
:1038A000025585EACE710AD05FEA440C18BF24F0B5
:1038B000004450F1000041F1000120EAD47040F2D0
:1038C000FE7C624500D270BDA84214BF4FF0804418
:1038D0004FF04044002E08BF0024BEF1806FA8BF07
:1038E000A1F1C041BDE8704080F2828001F1C04189
:1038F00001F000414FF0000070470CEA13159EEAFA
:103900000C0F18BF95EA0C0F06D081EA030E4FF09A
:1039100000000EF0004170BD00F01CF88900013E6F
:1039200000F007B800F009B84FEA430C5FEA5C5CAE
:1039300008D081EA030100F05BB84FEA410C5FEA6E
:103940005C5CF6D102494FF0000070470000FF07B1
:103950000000F87F0EF1020E2EF0030E5EF8046BED
:10396000364205D4012A43EB030515F5001F12D892
:10397000012841EB010C1CF5001F0CD80ED14FEAB9
:10398000D17C0CEB4C0C0CF1020C15F5001F08BFA0
:103990004CEBD37C04E04FF0080C01E04FEAD37C01
:1039A0000CEB4C0526FA05F606F00706B6F1040CFA
:1039B00006D20EEB860CBDE870404CF0010C60475F
:1039C000DFE80CF0090B02024FF00041A1F50021E5
:1039D0004FF0000070BD19461046012851EB01045C
:1039E00018BFD4F5001484BF002001F0004170BD61
:1039F0000808A0F500114FEA3101704753EA010CA5
:103A000017D41CF5801F58BFBCF5801F00F106803D
:103A10008B4218BF704708BF8242704707D713F523
:103A2000801F58BF11F5801F19D48B4270479B42ED
:103A300070471CF5801F08D5BCF5801FF7D599424B
:103A400018BF704708BF904270474FF4001C1CEB32
:103A5000430F38BF1CEB410F01D2994270470FB49E
:103A60000CBC03BCFFF7C1BE10B591EA030F81F097
:103A700000413FF537AC83F0004300F009B8000087
:103A800010B591EA030F48BF83F000433FF52AAC1D
:103A9000841A71EB030C07D28CF0004C121943EB23
:103AA0000C03001B61EB0C014FEA1154A4EB135CF7
:103AB000DFF89CE11EEA430F18BF9EEA445F00F066
:103AC000B08021EA045123EA6E035242C3EB6E0335
:103AD00038BF5B1EDCF1200E25D322FA0CFE10EB62
:103AE0000E0043FA0CFE41EB0E01CCF1200E03FA5E
:103AF0000EFE10EB0E00CCF1200E51F1000129D486
:103B000001EB045112FA0EF2BDE8104058BF7047A5
:103B1000401C1CBFB2F1004F704700280CBF491C6D
:103B200020F00100704712EB020E43EB030218BFB6
:103B30004FF0010E4EEA4202ACF1200CDCF11E0EF9
:103B400054D943FA0CFE10EB0E00CCF11E0E51F1CD
:103B5000FF31D5D50EF1010E12FA0EFE404141EBB8
:103B6000010101EB445C5FEA5C5C10D901EB04519C
:103B700010EBDE7038BFBEF1004FBDE8104018BF3B
:103B8000704700280CBF491C20F00100704730D25C
:103B90004FEAD42C24F4006411F500111BD0B1FAC3
:103BA00081F20B3AA41AA41ED2F12003914030FAFC
:103BB00003F31943904001EBCC7101EB0451002C4D
:103BC000BDE81040A8BF704701F1C04101F00041BD
:103BD0004FF000007047B0FA80F310FA03F100D103
:103BE00010BDE41A173C4805C90AE4E701EB04518B
:103BF00010BD49104FEA300001EB0451BDE8104000
:103C000002E04FF0000170474A0008BF0042F8D0C0
:103C1000B2F5001F28BF704701F000414FF00000CF
:103C200070479EEA445F07D011EA5E0FBDE810407E
:103C300004BF002100207047BDE8104070B5FFF7B9
:103C400089FE00BF40DFF63E104683F0004170471A
:103C50000000E0FF43004FEAD30C4FEA3C0C434026
:103C60001FBF40070CF1605113F0FE4F70471CF06E
:103C7000006F03D10CF00041002070470CF00043AE
:103C800043EA507040EACC0010B500F0CEFA00BF15
:103C9000000000924FEA0001FFF7AABE4FF000417A
:103CA000A1F500214FF000007047000090EA010FDD
:103CB00048BF81F0004100F10A83421A3CBF801ADC
:103CC00089184FEAD052A2EBD1534FF07F4C1CEA37
:103CD000410F18BF9CEA026F00F03B804FF0004C90
:103CE0004CEA00204CEA012121FA03FC10EB0C0CF9
:103CF0001ED202F1FF325FEA1C2040EBC25038BFF7
:103D000070471CF07F0F4FEA400C18BFBCF17F4F8B
:103D100038BF7047C3F12003994008BF20F001006D
:103D2000BCF17F4F38BF7047A0F1C04000F0C3BA6C
:103D30004FEA3C00000A40EBC25028BF1CF0FF0FC6
:103D40004FEA400CE6D018BFBCF17F4F38BF704738
:103D5000EAE79CEA026F05D010EA5C0F08BF00F0AA
:103D60000040704710B500F060FA00BF64FBBE3E33
:103D700010B500F0F5F80CBF0120002010BD10B503
:103D800000F0EEF814BF0120002010BD10B500F0C7
:103D900063F98CBF0120002010BD10B500F05CF964
:103DA0002CBF0120002010BD10B500F089F994BF90
:103DB0000120002010BD10B500F082F934BF0120B1
:103DC000002010BD401058BFC0F14040491058BFFE
:103DD000C1F140418142EFF3008070474FF47F0C06
:103DE0001CEAD0121EBF1CEAD11392EA0C0F93EA10
:103DF0000C0F00F0858090EA010F48BF42F48072FA
:103E000040F4000C41F400002CF07F4120F07F4092
:103E100000B5A2EB030281420FF2081CACEB504E3E
:103E20009EF800E0C0F100004FEA4E0E00FB0EFCD1
:103E300038BF49004FEA2C1C0CFB0EF34FEACE1E94
:103E40000EEB635E4FEA112C0EFB0CFC4FEAC12116
:103E50004FEA1C5300FB031102F5FA024FEA112C42
:103E60000EFB0CFC4FEA01314FEADC4C00FB0C115D
:103E700042EB2242C14228BF09184CEB03335DF8E4
:103E800004EB10EB410143EBC250B2F57C0F38BF9D
:103E9000704729D512F0F00F1CBF00F1C04000F0B0
:103EA00000407047008182838485868788898B8C57
:103EB0008D8E8F919293959697999A9C9D9FA0A293
:103EC000A3A5A7A8AAACAEB0B2B3B5B7B9BCBEC0E3
:103ED000C2C5C7C9CCCED1D4D7D9DCDFE2E6E9EC84
:103EE000F0F3F7FAFE0000004FEA400C0CF1807C82
:103EF000BCF17E4F28BF7047B0F1C04000F0DBB985
:103F00000CEAD11390EA010F48BF42F48072624577
:103F100038BF634507D213F47F0F16D080EA010043
:103F200000F00040704710B500F07FF9097EFC3EBC
:103F300000F005B880EA010000F00040704780EA18
:103F4000010000F0004000F0B6B912F47F0F04BF8A
:103F50000248704780EA010000F0ADB90000C07F60
:103F600050EA010C00F113801CF5000F58BFBCF59E
:103F7000000F01D48842704707D710F5000F58BFD3
:103F800011F5000F15D488427047894270471CF51F
:103F9000000F04D5BCF5000FF7D5814270474FF0F4
:103FA000807C1CEB400F38BF1CEB410F01D28142DB
:103FB000704710B500F039F9922449004FF00050D5
:103FC0004FF08051FFF7FEBE41000B0ED3F19E0271
:103FD00008D950F400034FEA032323FA02F048BF44
:103FE0004042704710B500F020F900BF499224808C
:103FF000002070476FF0004282EA20007047000006
:1040000010F0004148BF4042B0FA80F310FA03F2CA
:10401000C3F19D030BD051EAC35101EB12205306AB
:1040200038BF704700F1010008BF20F00100704761
:10403000B0FA80F310FA03F2C3F19D030AD0D90558
:1040400001EB1220530638BF704700F1010008BF92
:1040500020F001007047000050EA010C00F11380CD
:104060001CF5000F58BFBCF5000F01D48842704703
:1040700007D710F5000F58BF11F5000F15D488426F
:104080007047894270471CF5000F04D5BCF5000F3E
:10409000F7D5814270474FF0807C1CEB400F38BF52
:1040A0001CEB410F01D28142704710B500F0BDF802
:1040B000922449004FF080504FF00051FFF782BE2C
:1040C00050EA010C00F113801CF5000F58BFBCF53D
:1040D000000F01D48842704707D710F5000F58BF72
:1040E00011F5000F15D488427047894270471CF5BE
:1040F000000F04D5BCF5000FF7D5814270474FF093
:10410000807C1CEB400F38BF1CEB410F01D2814279
:10411000704710B500F089F8922449004FF0005024
:104120004FF08051FFF74EBE4FF47F0C1CEAD012C7
:104130001EBF1CEAD11392EA0C0F93EA0C0F00F099
:10414000478090EA010F48BF42F480724FF0004C64
:104150004CEA00204CEA012102EB0302A0FB011310
:10416000A2F50002002918BF43F001035B0028BF3D
:104170004FEA330342EB22425FEA132C4CEBC2506E
:104180002EBFBCEB436FB2F57C0F70474FEA036C58
:10419000BCF1004F08BF20F00100B2F57C0F38BF22
:1041A00070470BD582F0FF0212F5803FC8BF704701
:1041B00000F1C040D8BF00F00040704700F5000C8F
:1041C0005FEA4C0C48BF7047B0F1C04000F073B8D4
:1041D0000CEAD11390EA010F48BF42F480726245A5
:1041E00038BF634504D280EA010000F00040704708
:1041F00010B500F01AF800BF8900013E00F007B8C2
:1042000000F009B85FEA410C5FEA1C6C08D080EA54
:10421000010000F050B85FEA400C5FEA1C6CF6D178
:104220004FF00040A0F5800070470EF1020E2EF016
:10423000030E5EF8044B244204D44FEA4102B2F16B
:104240007F4F11D84FEA4003B3F17F4F0CD80ED106
:104250004FEAD07C0CEB4C0C0CF1020CB2F17F4F0E
:1042600008BF4CEBD17C04E04FF0080C01E04FEAB2
:10427000D17C0CEB4C0324FA03F404F00704B4F1F2
:10428000040C06D20EEB840CBDE810404CF0010C7F
:104290006047DFE80CF0070802024FF00040A0F58D
:1042A000800010BD0846420018BFD2F1807288BF5E
:1042B00000F0004010BDFF2141EAD050C00570471A
:1042C00090EA010F48BF81F000413FF5F6AC421A79
:1042D00004D882F00042A0EB020011444FEAD05211
:1042E000A2EBD1534FF07F4C1CEA410F18BF9CEA60
:1042F000026F4AD04FF0004C4CEA00204CEA0121FA
:1043000021FA03FCB0EB0C0C0FD412F0FE0F36D0E8
:104310005FEA4C001DD5001240EBC25038BF704719
:104320001CF03F0F18BF70470BE05FEA1C20A2F1A2
:10433000010240EBC25038BF70471CF07F0F18BF1E
:104340007047C3F12003994014BF401E20F00100C4
:1043500070474FEA1223800808BF7047B0FA80FC0C
:10436000A2EB0C02CCF1280C60FA0CF093EA122FAD
:1043700004BF00EBC25070474FEAC3707047130A86
:104380005FEADC1008BF7047F6E79CEA026F04D0D2
:1043900010EA5C0F08BF0020704710B5FFF745FF1B
:1043A00040DFF63E81F0004070470CF00F03092B10
:1043B00008BF082000F059800A2B0BD0082B18BF2B
:1043C000704708BF1CF0400F0AD04FF000004FF0BC
:1043D000000170471CF0400F18BF4FF000407047BD
:1043E0001CF0100F08D000F07F4220F0704342EA2A
:1043F000D3014FEA4370704700F0604021F07F42E4
:1044000042EA000201F07F4040EA727070474FF0CC
:10441000FF0C4CF4E06C1CEA11531CBF9CEA030C2B
:104420009445C2BFDA4201EB02517047002B0DD018
:10443000BCF1000F0FD001F00041002AA4BF41F0F1
:10444000E04141F07F614FF00000704701F0004112
:104450004FF00000704750EA01334FF09B0C18BF3B
:104460004CF0806C7EF4DEAF70471CF4801F11D0DE
:104470001CF4E02F03D06FEACC31490070474FF0B5
:104480004050EFF3008222F0704242EA000282F3D1
:10449000008870474FF000007047000000000000E7
:1044A000000000000000E03F000000000000E0BF4E
:1044B0000000E0FE422EE63F0000E0FE422EE6BF96
:1044C000763C7935EF39EA3D763C7935EF39EABD0E
:1044D0003E5555555555C53F93BDBE166CC166BF7B
:1044E0002CDE25AF6A56113FF16BD2C541BDBBBE74
:1044F000D0A4BE726937663E0000000000000000D4
:104500000102030406070809010200000000000080
:1045100000000000000000000000000000F80000A3
:104520000000000000333000000000100C06100CEA
:104530000600000000000000000040C07840C07885
:104540004000043F04043F040400007088FC08306D
:104550000000001820FF211E0000F008F000E01805
:10456000000000211C031E211E0000F008887000BE
:1045700000001E2123241927211010160E00000010
:1045800000000000000000000000000000E018042F
:104590000200000000071820400000020418E0009C
:1045A00000000040201807000000404080F08040DC
:1045B00040000202010F01020200000000F00000B2
:1045C00000000101011F01010100000000000000C6
:1045D000000080B07000000000000000000000003B
:1045E00000000001010101010101000000000000C4
:1045F000000000303000000000000000000080607B
:104600001804006018060100000000E010080810FF
:10461000E000000F102020100F00001010F8000024
:1046200000000020203F20200000007008080888BB
:10463000700000302824222130000030088888488B
:1046400030000018202020110E000000C02010F8BB
:10465000000000070424243F240000F8088888088C
:1046600008000019212020110E0000E01088881891
:104670000000000F112020110E0000380808C83873
:1046800008000000003F0000000000708808088853
:104690007000001C222121221C0000E010080810DC
:1046A000E0000000312222110F00000000C0C00015
:1046B000000000000030300000000000008000001A
:1046C000000000008060000000000000804020101A
:1046D0000800000102040810200040404040404013
:1046E0004000040404040404040000081020408076
:1046F00000000020100804020100007048080808AB
:10470000F0000000003036010000C030C828E8107A
:10471000E0000718272423140B000000C038E00035
:104720000000203C23020227382008F8888888707F
:104730000000203F202020110E00C030080808088B
:104740003800071820202010080008F80808081072
:10475000E000203F202020100F0008F88888E8089B
:104760001000203F20202320180008F88888E8083F
:104770001000203F200003000000C0300808083867
:10478000000007182020221E020008F80800000878
:10479000F808203F210101213F20000808F80808FF
:1047A00000000020203F2020000000000808F8083A
:1047B0000800C08080807F00000008F888C02818AA
:1047C0000800203F20012638200008F808000000DB
:1047D0000000203F20202020300008F8F800F8F8E2
:1047E0000800203F003F003F200008F830C00008CC
:1047F000F808203F200007183F00E01008080810C4
:10480000E0000F10202020100F0008F8080808080A
:10481000F000203F210101010000E010080808100D
:10482000E0000F18242438504F0008F88888888842
:104830007000203F2000030C30200070880808081A
:1048400038000038202121221C00180808F8080828
:1048500018000000203F2000000008F808000008B1
:10486000F808001F202020201F000878880000C8BA
:104870003808000007380E010000F80800F80008AA
:10488000F800033C0700073C0300081868808068B4
:10489000180820302C03032C30200838C800C838F2
:1048A00008000000203F2000000010080808C83859
:1048B00008002038262120201800000000FE0202F7
:1048C00002000000007F40404000000C30C00000AB
:1048D0000000000000010638C00000020202FE00D5
:1048E0000000004040407F0000000000040202027F
:1048F00004000000000000000000000000000000B4
:10490000000080808080808080800002020400009F
:104910000000000000000000000000008080808097
:1049200000000019242222223F2008F80080800085
:104930000000003F112020110E0000000080808048
:104940000000000E1120202011000000008080884F
:10495000F800000E112020103F2000008080808091
:104960000000001F222222221300008080F088888D
:1049700088180020203F20200000000080808080D8
:104980008000006B94949493600008F8008080800D
:104990000000203F210000203F2000809898000068
:1049A00000000020203F2020000000000080989898
:1049B000000000C08080807F000008F80000808038
:1049C0008000203F24022D302000000808F800005D
:1049D00000000020203F2020000080808080808018
:1049E0008000203F20003F20003F808000808080AA
:1049F0000000203F210000203F20000080808080B8
:104A00000000001F202020201F00808000808000E8
:104A1000000080FFA12020110E0000000080808097
:104A20008000000E112020A0FF8080808000808008
:104A3000800020203F212000010000008080808035
:104A400080000033242424241900008080E080802A
:104A500000000000001F2020000080800000008077
:104A60008000001F202020103F20808080000080D8
:104A7000808000010E3008060100808000800080E8
:104A800080800F300C030C300F000080800080808D
:104A900080000020312E0E312000808080000080B8
:104AA000808080818E701806010000808080808068
:104AB00080000021302C2221300000000000807C8A
:104AC000020200000000003F404000000000FF0024
:104AD000000000000000FF0000000002027C8000D7
:104AE00000000040403F00000000000601010202FB
:104AF0000404000000000000000002030405060793
:104B000008090A0B0C0D0E0F10100000304B0008A6
:104B1000000000204800000028010008784B000831
:104B200048000020D00700004401000800000000F9
:104B300001000000100000000008014000080140D2
:104B40000008014000080140000801400008014041
:104B5000000C0140000C014000127A00F00000201F
:104B600000000000000000008001002000000000A4
:084B700000000000000000003D
:04000005080000ED02
:00000001FF
